:100000000C948A300C949C300C949C300C949C3052
:100010000C949C300C949C300C949C300C949C3030
:100020000C949C300C949C300C949C300C949C3020
:100030000C949C300C949C300C949C300C949C3010
:100040000C949C300C949C300C949C300C949C3000
:100050000C949C300C949C300C949C300C949C30F0
:100060000C949C300C949C3000004A19B9273F37FF
:10007000A907C61C902CE438BE096C1E352E6239C7
:10008000CF0F7621F130D63AB11368268635AC3BD6
:10009000AAB687F88437E8C1073DF8E09187070FD3
:1000A0000F1B1EAA2A3333333333CDCCCCCCAC99BF
:1000B000313395B200E3F000FF00FE000000FFFFC7
:1000C000FF2500000000FFF7FFFFFFBF12008000C8
:1000D000000000EEFFFFFFF7FFFE9A9AAA967495C4
:1000E0008ADE74A0F7257468FF5B4180D4FDDE12C0
:1000F0000424EDFB5B2504916ADF77150222D57A93
:10010000EFB62484A4DA9A74D43333E8E855550062
:1001100013224A767EFF000004C70390035D032D7F
:1001200003FF02D402AB02850261023F021E0200FD
:10013000004A19B9273F37253C2E3C3B3C473C55EC
:100140003C753C9C3CC73C3B3D4A3D6E3D7D3D8DF6
:100150003DAB3DC73DE83D043E223E453E633E7615
:100160003EC83E6B3FB53FD23FDB3FF23F16403AC1
:10017000408D40E04016413A4163418C41B541CA4F
:100180004102420D421E424A4266429742B942D162
:1001900042EE42084315433C43564370438243A713
:1001A00043B443CA43EF43194465449A44D54420B9
:1001B000452F453E457745C845D845E9456346E363
:1001C00046DA47F247FD47084814481F482B48388D
:1001D0004844485048294B554B874BBD4BCE4BFBB1
:1001E0004B2C4C594C834CB64CEA4C7A4D874DB84D
:1001F0004DE64DEF4D184E414E4E4EBD4EFD4E1646
:100200004F5B4F664F894FA24F18507E50AB50DD69
:100210005009512F513E514A517E518851A651CC1F
:1002200051EE5112526C527A52A152E7522E535053
:10023000538F53CE530A5441549B54AC54BB541A5D
:10024000552A553A554355AF55C555DB555B5604B0
:100250005712577257BC57CB57EF5713581C584774
:100260005860588658AC58C358DB58055911594343
:10027000594F59D159DF59035A275A6D5A7F5AB3EA
:100280005A0C5B1F5B345B555BAC5BB65BCA5BD7E0
:100290005B305C955CAA5CFF5C475D7E5DCB5DF787
:1002A0005D255E0201F005F1F200F1F033F1F20399
:1002B000F1F011F1F208F10AF015F1F203F103F097
:1002C0000EF1F208F1D7E4062CD1062CD3062CE36C
:1002D000D3C4A474557524741555D1C4A4667CD3B5
:1002E000F002F15626D1C6D3F1E5F002F15626D13F
:1002F000C6D3F1E3F002F1663616F1E5F002F166DD
:100300003616F1E3F002F1764626F1E5F002F176D9
:100310004626F1E3F002F1865636F1E5F002F18669
:100320005636F1E3F002F1966646F1E5F002F196F9
:100330006646F1E3F002F1A67656F1E5A676F00402
:10034000F1F200F103E3D7B6DF361315F003F1261F
:1003500016D7C6DF16F14676864616D7B6DF16D70D
:1003600086B6866676864616D3B686668646664620
:1003700066A6D71565B5DF35654515D7B5DF4515D3
:10038000D7B585DF15D7B58565B5856545856545DF
:1003900015654515D3B5D74515D3B585D715D3B54F
:1003A00085451A15F004F12616D1C6D316F1E5D10C
:1003B000C6B6A696867666560305E3446484B4D32F
:1003C00044E544E314859584E584E3B4E5B4E3842B
:1003D000D733E534E344556514D38463E564E38A95
:1003E00085F004F196867686F105B4C505D7144CE0
:1003F0000664F004F1768CDF1505D7F165768CDFA5
:1004000015D765768CDF15F004F1D7667686DF1692
:10041000F14515D7B5DF15D7857565456545154592
:10042000754514456544844465754515D3BBD7159A
:10043000E5D3C6B6A696867666560103E396A6B6BB
:10044000C6D71A9BA6B3A69A9CF002F1A6968696EA
:10045000F1A6DF240AD7C403B494B474442545D369
:10046000C4D72403D3740104C404D7445474B4948B
:10047000244474DF4345E54BE36573052AE52B030C
:100480000CE3D76C75B5DF246C067406644C2C0540
:100490001CD7CC05DF4CD7B4069506C5DF2BD7B4E7
:1004A0007495A5B494744494744425057466E55613
:1004B000463626160105E3D3244465057494B4C476
:1004C000D715052444749505B4DF24F21406F0030F
:1004D000F1F21AF21BF1F21AD7E4F003F156D386C7
:1004E000C6D716F156D386C603D7F004F12666D3D5
:1004F00096D716F103F004F13676D3A6D726F1038A
:10050000F004F14686D3B6D736F104E3DF46D7765A
:1005100046D3C6D796C6DF46D77604DF56D786566B
:1005200016A6DF1656D78604DF66D7966626C6DF80
:100530002666D7966626C6DF26D706F002F1F21C9D
:100540000000F1E3DF0C768C14D7B4A4768C6484BD
:100550004C3614D3B4D715D3B584566C4414A5B512
:10056000D714D38505D7A6D3ACD766D36CD776D3AB
:100570007CD786D38CD746D34CD716D31CD736D34B
:100580003CB6D1BCD386D18CD346D14CD356D15CAA
:10059000D366D16CD346D14C140103D7446484B4E0
:1005A000C5DF14E5D7C6B603E3DF74037585B585EB
:1005B000B575654514644414D7B4C6DF1CE4D7C6CA
:1005C000B60A05E3D31565358545B565D715D375E9
:1005D000D735D385D745D3B5D76585A5B5DF1535CF
:1005E000456585B5A56545658515D7B5DF354515DF
:1005F000D7B5A59585758565453515D3B5D7351519
:10060000D385B5A56575854535D1B5D34533354514
:10061000556265F004F176665666F144341464441C
:100620003404132616D1C6D316344404B585A5B5B3
:10063000D715253444648495B595B59295A5BAB57A
:10064000A5958503DF56667B53D7C4DF44D794B5A1
:10065000C5749444742444D3C4B47444D1CA95C5B5
:10066000D32AD1B5D3455355C5758593D73545950F
:1006700075D3C484745444743424D1C4D374C4D79B
:100680004474B5C5DF44740445352404D7C404DF7D
:1006900085955545352545D7C5DF25D7957545D36E
:1006A000C5D725D395B5D7457595B5C4DF24450580
:1006B0007424D7C4DF24D794C4657375DF254A45F5
:1006C000362616D7C604D3244465057494B4C4D71B
:1006D00015052444749505B4DF24F21406F003F1E3
:1006E000F21AF21BF1F21A080A0CF003F1F220F2EE
:1006F00021F1F22000F008F1F220F221F1F004F1F2
:10070000F200F1D7E6F010F1061CF1D7F050F1E657
:1007100055E755E615E715E635E735D3E684F1F0FC
:1007200002F1F002F1F002F106F22C090CF1F002F4
:10073000F106F22D090CF1F1F22906F22D090CF265
:100740002906F22D090CF22AF22BF1DFE30166767D
:1007500086A68AF002F196867686F1746454D7C430
:10076000DF143555D7A4648494A4DF14D78464556A
:1007700065143454153335E43AE384048304E58383
:1007800004E68301E35585A5B5C4845404B474021A
:10079000DF15D7A5651534A464DF14D7A4DF34446E
:1007A0005414D7A4658BE483E363E463E3355355C2
:1007B0000483E583E33A5403E4540104E3A5856527
:1007C0003515D3B585556535D1B5D3153555653551
:1007D0006585B5D7356585B5A59585DF15D7B5C5CB
:1007E000DF15355564563616D7C6D364A4D75414CE
:1007F000D3A4D71485A5541484C5DF153454645389
:1008000014D7A4657585553515D3C5D715D3A565FA
:100810008555657585A5C5D71535556585A5B5C4B7
:10082000DF1434658B14D7C4DF14D7A4C494A4C9CF
:10083000DF1A2616D7C6DF16D78434D3C5D72BD3F5
:10084000A3D73353625314E414E51404E3D3A4E4AC
:10085000A4E5A404E3D712E413E513E613E333E4B9
:1008600033E533E633F232D3E3F004F176B646F102
:1008700004F004F186C656F104F004F1D716D366ED
:1008800096F104F004F176A6D726D3F104D1F00353
:10089000F1B6D336D186F10CF003F1C6D346D1962A
:1008A000F10CF003F1D31656D1A6F10CF003F1D3FD
:1008B0002666D1B6F10CF003F1D33676D1C6F10C31
:1008C000D3F003F1468616F10CF012F1569626F19C
:1008D000569603F013F166A636F10A0CD3E3D7B6A9
:1008E000C6DF15253515D7B5DF12142616D7C6DF96
:1008F000162616D7C6DF1645F005F11545F1F004AA
:10090000F11565F1F003F11575F11585154565458E
:1009100015D7B5DF15D785B585657565451545D3FB
:10092000B5C5D71545657585B585B57565451B652F
:100930004B15D3BB05AB0584154BF002F15646367B
:1009400046F163F002F166766656F17484B4D7140A
:10095000456585A5B4A49482E483E58BE395A2E480
:10096000A3E5A3E3B4DF1434446484A494845464FE
:10097000354515D7C5B4A4648A8536D3A68A85566D
:10098000D1C68A856616D08203D184A4B4D3143428
:10099000446584A4B5D7153544648495A5B8CAE4E4
:1009A000B304C304E5B304C304E6B304C304E7B368
:1009B00004C303E394B474442474D3C474B2E4B29F
:1009C000E6B3E3DF44744555453524D7C4DF21231E
:1009D000E429E529E629E72200F002F1F229E506FB
:1009E000F003F1D7156595DF155585F1E4D7156549
:1009F000E395DF155586F1F22AF232F235F232DF55
:100A0000E34434D7B484644434D3B484644434D1E8
:100A1000B4846444F232F235F232DF5434D7A48421
:100A2000645434D3A484645434D1A4846454F2321E
:100A3000F235F232F004F1F200F1D7E41010E510D3
:100A4000F33FE610F345E710F34A101002E5F24ECB
:100A500003F32DF004F1D3E71505E8F003F11505D4
:100A6000F1E71505E81505E7F003F11505F1F002CA
:100A7000F1E815051505E71505F11505F1E615056C
:100A80001505E7F009F11505F1E61505E51505E48D
:100A90001505E31505E21505F237F237F002F1F01E
:100AA00004F1F237F1F003F1D3E545E745E525E739
:100AB00025E595E795E5D195E795E5D345E745E546
:100AC00065E765E595E795E5D195E795F1D3E545CA
:100AD000E745E525E725E595E795E5D195E795F225
:100AE00037F1F237F243F243F24406F243F243F0B5
:100AF00002F1E2DF16D7C6865616D3C68656160C06
:100B0000D75616D3C68603D75616D3C686E4F00644
:100B1000F1D75616D3C686F104E2D75636D3C68629
:100B200003D75636D3C68603D75636D3C686E4F0E7
:100B300003F1D75636D3C686F1E2DF15D7C5855502
:100B40003515D3C5A5E2D7664616D38603D76646C4
:100B500016D38603D7664616D386E4F006F1D76629
:100B60004616D386F104E2D7864616D3B603D78657
:100B70004616D3B603D7663616D386E4F005F1D70A
:100B8000663616D386F1E1F002F1D76636D3C68613
:100B9000F1F1E8F002F1D7C646D3C696E7F1E6F0E8
:100BA00002F1D7C646D3C696E5F1E4F002F1D7C606
:100BB00046D3C696E3F1E2F002F1D7C646D3C69615
:100BC000E1F1F002F1E2F002F1F24604E4F1E6F0C4
:100BD00002F1F24604E7F1F246E2F002F1F24704D4
:100BE000E4F1E6F002F1F24704E7F1F247E2F00245
:100BF000F1F24804E4F1E6F002F1F24804E7F1F220
:100C000048E2F002F1F24904E4F1E6F249F002F1BF
:100C1000E2D7F002F166561686F104E3F1F1D385CE
:100C20009564DF14D794D3C484D736DF3CC6D7CCC1
:100C3000DF1505D7850544D384E1F002F1F24604BF
:100C4000E2F1E3F002F1F24604E4F1E5F002F1F240
:100C50004604E6F1E7F002F1F24604E8F1D014119F
:100C600008F33502F02CF1F24FF1F004F1F256F1F5
:100C7000F25BE1DF36E2D7323CE43234E53234E68F
:100C800033E3DF162636465366564656840414E68A
:100C9000D7C4E3B4A484B4A4B4DF14045405163454
:100CA000061405E4D7A504E3840ADF150BD3A4B525
:100CB00006D7350675A495E48574A4E384346505E8
:100CC00044550584B5058505DF140C540C840B943C
:100CD000A48505550514263CD7B4DF15D7B5A484E3
:100CE000B4846486AC8464341486A6851435453592
:100CF00015D3B60CD7163C1C06D3A48505D73C06E5
:100D00001C0B06E1DF25E33446364636D7B5AC0C7E
:100D100094068CDF1505D7A50C6506341C05D3CCCD
:100D2000A5068C650645061506350655C5D755A595
:100D30005575C575A5C5DF3575655585A5B5C5B5A9
:100D4000C57555A575958555E46525D7C5DF14E6A8
:100D5000DF15E4D7A5E665E4DF15E6D7A5E4B5E63B
:100D6000DF15E4D7A5E6B5E4DF15E6D7A5E4DF5542
:100D7000E615F007F1F24FF1F004F1F256F1F25BF3
:100D8000F25EF003F1F261F1F268F269F004F1DF72
:100D9000E525E765E5D775E7DF25E5D7B5E775E52F
:100DA000DF25E7D7B5E5C5E7DF25E5D7B5E7C5E535
:100DB000DF25E7D7B5E5DF65E725F1D7E20426E3D0
:100DC000D32506E2D776E3D37C94E2D7B6E3D3BC4F
:100DD000E2D7C6E3D3CCD7244505E2DF66E3D76C80
:100DE000749505A6BCC4DF142C061505D7C4769CE3
:100DF00074446575253544D3C4D72415D3B5A59B54
:100E000064749CCCD7456BA6BC06840CA4B6A66BB8
:100E1000660666068BE583E68BE36406848612E449
:100E200012E512E612F24FF24FDFE415E655E4D771
:100E300065E6DF15E4D7A5E665E4DF15E6D7A5D7B7
:100E4000E306AC06BCDF14350C5C6445556575845F
:100E500064D7C4DF143444D79C06C5BCC506A406B9
:100E60009CDF2505D7B50C7506442C051CD3B506AB
:100E70009C7506550625456595D71565B595847409
:100E800044D3C494746C06E4B44434240904E3D712
:100E90004C069474450524D3B505D744D3BC06D776
:100EA0004674D3BCD724D3B5A574E494E375054444
:100EB0002445056474E294A4B4E1D7C6E2D3C6E540
:100EC000C5E2D735E535E255E555F25BF25EF00354
:100ED000F1F261F1F268F269F270F275F004F1F288
:100EE0004FF1F27500F006F1F24FF1D7E4F020F186
:100EF000663616E5F1E4F020F1865636E5F1E4F0C9
:100F000020F1663616E5F1E4F00BF1763616E5F1E0
:100F1000E4F00AF1863616E5F186F278F279F27895
:100F2000D3E1C6E2D1CCD3160CE1D756E2D35C9420
:100F3000E1D776E2D37C960CC5D71BD3658385E3D6
:100F400083E483E584F278F279F278D3E1C6E2D1E2
:100F5000CCD3160CE1D756E2D35C94E1D776E2D33A
:100F60007C960CC5D71BD3658385E384E2A506E494
:100F7000A6E2C506E4C6E2D71506E416E23506E4A5
:100F800036D7E2355A55E452E55AE2D354E284D7D3
:100F900014860C5563E46BE664E2543415E515E2FF
:100FA00035E535E255E555E2D3C5D71BD396A69373
:100FB00095E49AE59AE69AE69AE894E2D7560CE226
:100FC0003414D3C4D714D36583E48BE2A3E4A3E23F
:100FD000C406E4CCE25406E45CE284E485E2C4E4C2
:100FE000C5E2D7342434260CD3B4A6B6A584645500
:100FF000052506E38506D72506556656E24625D320
:10100000B5E2C5A5855535456554E3544454E554CA
:10101000E2DF66D766E565E2DF86E2D786E585E250
:10102000DFC616E51504E1D716E2D31506E1D7664B
:10103000E2D36C84E1D7A6E2D3ACE1D7C6E2D3CC4D
:10104000D7143505E1DF56E2D75C648505C6DF1CA1
:10105000D78464D3C4D714253335E33AE43AE53A68
:10106000E63AE73AE833E2355BE453F335D7E31A7F
:10107000E41AE51AE61AE713F007F10803F1D308BA
:1010800004E2D746E3D34506E2D796E3D39CB4E225
:10109000DF16E3D71CE2DF26E3D72C446505E2DF49
:1010A00086E3D78C94B505DF364CD7B494344455D9
:1010B0006B55453423044413D3950305960A0C96C7
:1010C0000B065606657595B5D725064506241445C5
:1010D00065D3B494A406D71CD39444068C04640A44
:1010E000D744061C35463606D3BC06E46C06444697
:1010F00005E3B46444D1B4C5D3132515D1C6D316C2
:101100002616D1C6D316D194D3140A05C6D71624F1
:1011100014D3C4D744D3B494C4D715350645065563
:10112000E295CC05DF4C065C064C062C06D7CC06B7
:10113000E3BCAC057C06947605A6B6C594DF241501
:10114000D7C5B5A5DF14D79484B46454443444643B
:1011500034D3B4D71315E41315E514E34345E4433E
:1011600045E54A0AE3DF44352515054505D7B4644E
:10117000D3B40A06E4D71406E3659C05E1DF1C0638
:101180002C06E24C06E3D7BC06E29C06E3DF1CD744
:101190006C05E2BC06644605E676E486E29506E365
:1011A000DF1C06D7BC03B60A0CB60B06B604E26415
:1011B0004605E676E486E29506E3DF1505D7BC042E
:1011C00094B60CDF14D7B4844414253564142C551C
:1011D0009CA5C3B6C6DF16D7C6B6C6BCC5AC95754A
:1011E0005525D3C59575557595C5D7455595B5C53F
:1011F000069C065C06247C542C06D3CC9CD7253C4C
:10120000D3C606D71C3C5C657585A5C5F003F1F215
:1012100061F1F268F269F270D7E24696B6E3DF66F2
:1012200046D7B6E44696B6E5DF6646D7B64696B6E6
:10123000DF66E3D3162636465666768696A6B6C68B
:10124000D7162636E246D7E2F004F15505F1550BE4
:10125000F004F15505F155020BF004F15505F15577
:101260000BF004F15505F1550A05A4E3A5E7A5E83F
:10127000A508D702F00EF108F101F280F281F280A8
:10128000F282F2830002F280F281F280F282F28333
:1012900002F28DD3E32304E624E35304E654E3731C
:1012A00004E674E35304E654E35AE45AE374544AFC
:1012B000E444F28DF290E2F002F1D1A6D32656A6D4
:1012C000D72656A6DF25D7A65626D3A65626D1A6BC
:1012D000F1F002F1DF26D7C6A6765626D3C6A6764B
:1012E0005626D1C6F1D3A6C6D726567696C6DF2691
:1012F000F293F00AF1D3E43696E2D726F1F00BF13F
:10130000E4D33696E2D756F106D3F005F1E426A6EB
:10131000E2C6F1F005F1D3E426A6E2D756F1D3F008
:101320000BF1E45626E2A6F106F00AF1E41656E2C5
:10133000A6F1F006F1E4D31656E2D756F1F005F126
:10134000D3E41656E2D776F106F005F1D3E496D150
:10135000C6E2D796F1F005F1D3E496D1C6E2D756AE
:10136000F1D3F006F1E496D1C6E2D3C6F1F005F16F
:10137000E456D1C6E2D396F106F015F1E42656E222
:1013800096F106F00AF1E446D1C6E2D376F1F00B0D
:10139000F1E446D1C6E2D386F1E406F293F00AF115
:1013A000E4D33696E2D756F1F00BF1E4D33696E269
:1013B000D776F106F005F1E4D326A6E2D776F1F070
:1013C00005F1E4D326A6E2D796F1F00BF1E4D3962B
:1013D00026E2D756F106F00BF1E4D31696E2D75683
:1013E000F1F00AF1E4D316A6E2D756F106F005F1C2
:1013F000E4D396D1C6E2D776F1F005F1E4D396D1E5
:10140000C6E2D756F1D3F006F1E496D1C6E2D3C6D0
:10141000F1F005F1E456D1C6E2D396F106F290E37D
:10142000D7728595E49403E354E454E3D3C4E4C44D
:10143000E5C4E6C4E7C4E8C4E3D7955525D3C5A5FC
:101440000BE5D7955525D3C5A50BE7D7955525D3DE
:10145000C5A50BE3C403C4D7726585E48403E374B4
:10146000E474E354E454E554E654E754E854E38563
:101470005515D3C5A50BE5D7855515D3C5A50BE7E0
:10148000D7855515D3C5A5020BE3D7B2C5DF25E433
:101490002403E3D774E474E324E424E524E624037A
:1014A000E3754525D3C5B50BE5D7754525D3C5B53A
:1014B0000BE7D7754525D3C5B5020BE3D78295A5B4
:1014C000E4A403E364E464E314E414E514E614E739
:1014D00014E814E3653515D3B5A50BE5D7653515C7
:1014E000D3B5A50BE7D7653515D3B5A50BE3C40375
:1014F000C4D7728595E49403E354E454E3D3C4E47D
:10150000C4E3D724E424E354E454E3A40495A59469
:1015100073A3759B04E694E3455B04E654E3D3C2EE
:10152000E4C2E5C2E6C2E3DFC2E4C2E5C2E6C2F05D
:1015300005F100F108D1E3C403C4D3F002F152E590
:1015400052E652E759E556E35CE546E34CE556E3DF
:101550005CE5D1C6E3CCE5D356E35CE596E39CE6D7
:1015600075E575E475E37375E572E393E493E3520F
:10157000E552E343E443F1E5DFF080F156D7A66698
:10158000DFF1F056F136D7A656DFF106E4DFF08042
:10159000F16626D7B6DFF1F040F18626D7B6DFF147
:1015A000F040F19636D7A6DFF1F003F1F010F12507
:1015B000D79565DFF1F010F155D7C595DFF1F1F062
:1015C00010F125D79565DFF1F008F155D7C595DF06
:1015D000F1010A06F29BF29CF29CF29BF29CE5D789
:1015E000F008F1259545F1F29DE374E195E29395BC
:1015F000E49374E295E39395E59374E395E493950E
:10160000E69374E495E59395E79302F29DD7E2752E
:101610008A85E483E2A6C4C605E284A48474843483
:10162000E384C4E1A5E2AAA5E4A2E2D3265696C6C5
:10163000D72656768696AC94A454C6DF2C74F29EB8
:10164000000804DFE855E755E655E555E455E35550
:10165000F29E0208F32602F010F100F1D70905E22C
:101660008696E3A404E2DF150514D7A505DF1B0564
:10167000E143E254D78505B40484860CE375640520
:101680003444E114E3D3B4E1D71B05E34446764682
:10169000761309E1DF450A0545020B450BE2D3B697
:1016A0000CB60CB60CB60CE1B60CE3B60CB60CB628
:1016B0000CB4E2B4E1D714E2A50B06DF1605E14451
:1016C00064450CD7B404E3DF1CE244E154E21BE3BD
:1016D000D7B5E4DF1CD7B58CE3B406E28CE495AB58
:1016E000E2DF14160CE3D784860C7564053444E1FC
:1016F00014E3D3B4E1D71B05E34446764676130AD8
:10170000E18603E4D31605E145E24405E165E26CB8
:1017100003E41605E145E34405E165E26405E145BE
:10172000E24BE31406D1BCE2D31403E1D7760C7686
:101730000B061B0205E244E3DF1505E1D76B0BE363
:10174000DF4505E2D7BB05E3B403E2B404E1BB0522
:10175000E3DF1505D7B404E1DF1505D7B505E3A52B
:101760000CE2DF1506E1D7B505E3A505E1DF1505B8
:101770004404E31505E165E365E165E365E165E3DF
:1017800065E165E36B76869686766656466466E224
:1017900076665666E34C644414D7B4DF15D7B58536
:1017A0006545352515354576467646764615D3B5D5
:1017B000D715D3B56585654515654515D1B58595AD
:1017C000A5B5D315D1C5856585653515D0B585E237
:1017D000D316D116D316D116D316D116D316D116C9
:1017E000D316D116D316D1160904E2D7354B1416E9
:1017F000E3D3BCE1D715E615E515E415E315E215CD
:10180000E115E215E145E35BE445352502E315E228
:101810004B057476E18CE364664CE23564E3451471
:1018200016D3BCE2C5D7132616D3C6D7162616E3A1
:10183000D3B4D715D3B585654515654515D1B5D351
:1018400015D1857545F2ABF2B0F2B1F2B0F2B2F259
:10185000B0F2B1F2B0F008F100F1D7E4657CE38CAE
:10186000E1B4E28505E1BB05DF1505E2D7B505E486
:10187000B5C5E3DF14E144E214E144E21505E17586
:101880008BE286E186E286E186E286E186E286E117
:1018900086B585B585E2B5E385B585644455E445EF
:1018A00014E2D7B4E3860CE1DF14E3D7B505850570
:1018B000E1DF1403150305E2D7B505DF1505D7B53C
:1018C00005DF1C06E4D78505E1B5057505E264E191
:1018D00074E26444E164E245051505E14404E2D3A1
:1018E000C505D73505E15404E225055505E174A485
:1018F000E3250554E174E28505E1B60CBC06E386F8
:101900000CB48505E1DF1C06E3D784E1DF4555E231
:1019100015E3D7B5E18505B404DF1505E2D7B48436
:101920006575654565D3B5D7154585B5DF356585DD
:10193000B5856545553515D7C56595856545351515
:10194000D3C5A59585E353D75404D364D764E27413
:1019500084044454D3B505D714044454E375E18595
:1019600005E3DF1505D78C0645E164E34505750BF6
:10197000E144E3654515E1D38504E364E1444606AB
:101980001504F2B303E2D786030C86030C86030C1E
:10199000A30483F2B3F2ABF2B0F2B1F2B0F2B2F25E
:1019A000B0F2B1F2B0E1D013150BE3D7150BD1149F
:1019B00004D3850BD1860CE2D3850BE3D1860CD3FF
:1019C000B4D71505D3150BE1D7150BE3D31505B522
:1019D0000305E2D7160CE4D38505160CE1B5030523
:1019E000E2B6D716D3B6D716D3B6D716D3B6D71610
:1019F000E3D184E1D3B6D746D3B6D74603E2460B4C
:101A000006D3160CD7450305E316461646D35404F1
:101A1000D74505E2D3150BE3D7166616661676662C
:101A200056667605D3B6D746030516461646031402
:101A3000D3160B06D714D3B5058475058403B503F7
:101A400005B60B06D1860CE1D3B50BE4B60B06E167
:101A5000B404E3D7160B06E1D3B403E2B6D746D3FA
:101A6000B6D7465505D3B486D716D386D71604D332
:101A7000B4E38505E264E34C06150574E184E343B1
:101A8000E2640AE3D1860CD36404B505860B06B480
:101A9000C6B6A6B6E1D713E2D31505D746030C4464
:101AA000D3841505D7640344160CD31505D7450513
:101AB000E1D314E4B404E2D714D3B60B06D714E38D
:101AC000D3B485056576040664460C1C06E264E41E
:101AD0001C06E34C06E51C06E2D1B505E485056568
:101AE00005E3D31505B50B460CE2D7160CE4D385F8
:101AF00005160CE2D714E4D38C06E3B4E2D715053F
:101B0000D31505B6D746D3B6D746D3B6D746D3B640
:101B1000D746D3B6D7460514E4D384E2B4E4D71647
:101B20000CE2D3B60CB6D746D3B6D746D3B6D74613
:101B3000D3B6D74656460565054505D3B505E3D763
:101B40001505D3B485A5644415056445051505D16F
:101B5000B505D315054505D71505D3460CD7150B87
:101B6000160C5573758676667655053505543C0614
:101B7000D3C505A505C505A50B5575045434D1C5B8
:101B800005D35434D1C505A505C4A47454A4C4D345
:101B900034E25575A4C4E1D73464F002F1E3D7729E
:101BA0000009BAAA9200095A6AF17A8A9AAAB10877
:101BB000E2DF26E25B56D766DF6B6645E156D75615
:101BC000DF56D75605E2DF3B26D7C6DF44465646EA
:101BD00036E3D7B5E1C4C6E396E2355BE335E26BA5
:101BE00074049B9606A5C405D3C40104FF02F00645
:101BF000F1F201F1F033F1F204F1F011F1F209F137
:101C0000F20AF015F1F204F103F00EF1F209F1D746
:101C1000E52454DF24D30103E4F002F155D175C566
:101C2000D3F1F002F165D185D315F1F002F175D150
:101C300095D325F1F002F185D1A5D335F1F002F16C
:101C400095D1B5D345F1A5D1C5D355A5F004F1F291
:101C500001F1F015F1F204F103F010F1F209F1F2E3
:101C600015F003F1F21AF21BF1F21AE3D35686D7FC
:101C7000165686C6DF568556D7C6865616D386565E
:101C8000036696D7266696DF1666956616D796661D
:101C900026D396660376A6D73676A6DF2676A57671
:101CA00026D7A67636D3A6760386B6D74686B6DF7F
:101CB0003686B58636D7B68646D3B68604D774DF61
:101CC0004404D784DF5404D7C5DF45D785C5DF4535
:101CD000D785F008F1D3F21CF1F003F1F21DF1F217
:101CE0001EF215F003F1F21AF21BF1F21A00F007DE
:101CF000F1F222F100F010F1F222F1F004F1F20120
:101D0000F1D3F010F1E665D766D3E766F1F005F19F
:101D1000F02AF1E6D756D33686F105F02AF1E6D758
:101D200066D33696F105F1F002F1F004F1F002F11C
:101D3000F003F1D7E336D38656E4D736D38656E59B
:101D4000D736D38656E6D736D38656F104F228F135
:101D5000F002F1F003F1D7E336D39666E4D736D339
:101D60009666E5D736D39666E6D736D39666F104FF
:101D7000F228F1F1F002F1F003F1D7E336D376A6C1
:101D8000E4D736D376A6E5D736D376A6E6D736D3CC
:101D900076A6F104F228F1F002F1D7E316D33696D5
:101DA000F1D7E416D33696E5F027F1D716D3369659
:101DB000F105F1F22FD3F002F1F23002F1F231022B
:101DC000F002F1E3C66636E4C66636E5C66636E678
:101DD000F005F1C66636F1F102F23002D7E316D310
:101DE000B686D7E4F013F116D3B686D7F104F22FF6
:101DF000F230D3D7E316D38656D7E4F00EF116D3DC
:101E00008656D7F10CE326D38656D7E4F009F1269F
:101E1000D38656D7F105D3F23103E469E563E6636F
:101E2000E462E563E663F005F1F233F104D3E32AFB
:101E3000043A044A045AD1B6C6D316263585B5D716
:101E40003504D34595C5D74504D355A5D7155504B5
:101E5000D365B5D7256504D375C5D7357504D38546
:101E6000D715458504F005F1D3255595D72555950A
:101E7000F104F005F1D33565A5D73565A5F10AF074
:101E800004F1D3F21CF1F003F1F21DF1F21EF002A5
:101E9000F1F00BF1D7E516E416E556E456E586E4D5
:101EA00086DFE516E416E556E456E586E486F1F0AD
:101EB00009F1D7156595DF155585F1F1F015F1D7C5
:101EC0003676A6DF1676A6F105F00BF1F233F1F0C7
:101ED0000AF1D7E367D3E46DD7E387D3E48DD7E383
:101EE000B7D3E4BDDFE367D7E46DDFE387D7E48DE5
:101EF000DFE3B7D7E4BDF1F00BF1F233F1F00AF113
:101F0000D7E367D3E46DD7E387D3E48DD7E3A7D3D3
:101F1000E4ADDFE367D7E46DDFE387D7E48DDFE38C
:101F2000A7D7E4ADF1F00BF1F233F1D34565F0152D
:101F3000F1D366A6D736F1D366F004F1F201F1D3FE
:101F4000E5F020F135D756D356F1E6F010F135D74C
:101F500056D356F1E7F010F135D756D356F1E8F0E5
:101F600020F135D756D356F1000204E6F24E0400B4
:101F700000F002F1E7D735F002F1E8D365E785E834
:101F8000D735E715E8D385E765E8D715E735F1E8F4
:101F9000D365E785E8D735E785E8D385E7D765E8F2
:101FA00085E755E865E715E855E7D385E8D715E7F0
:101FB000D365E885F1E7D735E8D365E785E8D73518
:101FC000E615E7D385E665E7D715E535E7D365E59B
:101FD00085E7D735E515E7D385E565E7D715E53519
:101FE000E7D365E585E7D735E585E7D385E5D765AB
:101FF000E785E555E765E515E755E4D385E6D715AB
:10200000E4D365E685F238F002F1F003F1F238F13D
:10201000F004F1D0E4B4E6B4F002F1E5D714E7142B
:10202000E5D334E734E4D0B5E6B5F1E5D714D314FD
:10203000F1F238F002F1D1E424E624F002F1E5D720
:1020400024E724E5D344E744E4D125E625F1E5D7A8
:1020500024D324F1F1F002F1F238F1F242F2420617
:10206000F244F242F242F002F1F23AE3F002F1D32A
:102070006686D7366686DF3666856636D7866636E6
:10208000D38666F1F101F002F1E1F002F1F24A04C7
:10209000E3F1E5F002F1F24A04E6F1E8F24AE1F098
:1020A00002F1F24B04E3F1E5F002F1F24B04E6F148
:1020B000E8F24BE1F002F1F24C04E3F1E5F002F159
:1020C000F24C04E6F1E8F24CE1F002F1F24D04E3E7
:1020D000F1E5F24DE1F002F1D35666A6D716568629
:1020E000DF166604E2F1F108E1F002F1F24A04E2DF
:1020F000F1E3F002F1F24A04E4F1E5F002F1F24A10
:1021000004E6F1E7F002F1F24A04E8F10401080202
:102110000000F004F1F003F1F250F1F251F1F25746
:10212000F258F257F259F25CF002F1F003F1F2507A
:10213000F1F251F1F257F258F257F259F25CF25FB4
:10214000F264F266F003F1F26BF1F26CF005F1D398
:1021500096D72666F176F003F1F250F1F251F003D2
:10216000F1F26BF1F26CD366F005F1D386D7165617
:10217000F1F25CF25FF264F266F26EF274F250F227
:1021800050F27400F003F1F250F1F003F1F276D363
:10219000E27686A6D73616D3A6E3F002F17686A6B7
:1021A000D73616D3A6F1E4F002F17686A6D7361616
:1021B000D3A6F1E5F002F17686A6D73616D3A6F1BE
:1021C000E6F006F17686A6D73616D3A6F1E5768632
:1021D000A6D73616D3A6E47686A6D73616D3A6E3B8
:1021E0007686A6D73616D3A6F276D3E2F002F1C6EB
:1021F0007696D75616D396E3F1E4F002F1C67696BA
:10220000D75616D396F1E5C67696D75616D396C608
:1022100076E2F002F186D75616D386C676E3F1E46D
:10222000F002F186D75616D386C676E5F1E686D754
:102230005616D386C67686D756F1F27AD7E3F002E1
:10224000F136D36696D75603F136D36696D7560A3B
:1022500036D36696D7560436D36696D7560336D30A
:102260006696D7560236D36696D756D716D3A6D7D4
:1022700036D36696D756D7E416D3A6D736D3669606
:10228000D756D7E3F002F136D35686D75603F13648
:10229000D35686D7560204D736D35686D756D3C6DA
:1022A00086D7E436D35686D756D3C686D7E536D3F7
:1022B0005686D756D7E3F002F126D386A6D7560323
:1022C000F126D386A6D7560204D726D386A6D7569C
:1022D000D3C686D7E426D386A6D756D3C686D7E5F7
:1022E00026D386A6D756F27AF27AF002F1F27CF281
:1022F0007DF27CD1E2F002F1A6D32656967656D135
:10230000E3F1E4F002F1A6D32656967656D1E5F134
:10231000E6F00CF1A6D32656967656D1F1E5F002FA
:10232000F1A6D32656967656D1E4F1E3A6D32656E7
:1023300096F1F27CF27DF27CE2F002F1D1A6D32696
:1023400056967656E3F1E4F002F1D1A6D3265696DE
:102350007656E5F1E5F002F1D1A6D32656967656EB
:10236000E4F1E3F002F1D1A6D32656967656E2F1D7
:10237000E2F002F1D1C6D34676B69676E3F1E4F008
:1023800002F1D1C6D34676B69676E5F1E6D1C6D34C
:102390004676B69676C6D746E2F002F1D316668642
:1023A000C6A686E3F1E4D3166686C6A686E3D316F0
:1023B0006686C6A686E2D3166686C6A686E1C6D718
:1023C00046F264F266F26ED7E2B4850564460C24E8
:1023D0006505B4DF44D3E2F004F186C605F186C694
:1023E0000BF004F186C605F186C6020BF004F186F7
:1023F000C605F186C60BF004F186C605F186C60A4D
:1024000005D756D3C6D756D3C6E5D756D3C6E7D7D2
:1024100056D3C6E8D756D3C608D302F028F1F27FC8
:10242000F1F2A3F002F1F287D7E4F003F156D3768C
:10243000A6D7F1E4DFACE556E65CE3C6E4CCE5A65E
:10244000E6ACD7E4F003F156D376A6D7F1E4ACE5D9
:10245000DF56E65CE3D7C6E4CCE5A6E6ACE3DF56A0
:10246000E45CE5D7C6E6CCE4F003F156D376A6D714
:10247000F1E4DFCCE5A6E6ACD7E4F003F156D37681
:10248000A6D7F1E4ACE5DF56E65CE3D7C6E4CCE5DD
:10249000A6E6ACE4F003F1D356A6D726F1DFE4AC10
:1024A000E556E65CE3C6E4CCE5A6E6ACE4F003F171
:1024B000D356A6D726F1E4ACE5DF56E65CE3D7C6F3
:1024C000E4CCE5A6E6ACE3DF56E45CE5D7C6E6CCB3
:1024D000E4F003F156D3A626D7F1E4DFCCE5A6E677
:1024E000ACD7E4F003F156D3A626D7F1E4ACE5DF90
:1024F00056E65CE3D7C6E4CCE5A6E6ACF287F1038A
:10250000F002F1D3E3A6D726D3A6D72604E6D3A6B6
:10251000D726D3A6D7260AF1F002F1E3D3A6D71621
:10252000D3A6D71604E6D3A6D716D3A6D7160AF194
:10253000F002F1D3E396C696C604E696C696C60A9E
:10254000F1F002F1D3E3B6D726D3B6D72604E6D30B
:10255000B6D726D3B6D7260AF1F003F1E3D3C6D710
:1025600056D3C6D75604E6D3C6D756D3C6D7560ACF
:10257000F1E3D3C6D756D3C6D75604E6D3C6D7564B
:10258000D3C6D75604F28A02F012F1F27FF1F2912B
:10259000D1E4A304E7A4E4C304E7C4E4D31304E749
:1025A00014E42304E724F28A02F012F1F27FF1D35B
:1025B000E2C6A686664626D1C6A693A404C3E4D185
:1025C000B304E7B4E4D32304E724E4D1A304E7A4E9
:1025D000E4C304E7C4E395B59AE492E592E692E396
:1025E000F294D3F002F1F003F1D1C6D38656F10A8A
:1025F0000CF003F1D1C6D38656F1090B06F1F002B7
:10260000F1F003F17646B6F10A0CF003F17646B626
:10261000F1090B06F1F002F1F003F1A66636F10ABA
:102620000CF003F1A66636F1090B06F1F294E3DF34
:10263000A40495A59473A3759B04E694E3455B04F9
:10264000E654D7A6E4ACE5DF56E65CE3D7C6E4CCB7
:10265000E5A6E6ACF011F1F27FF1F010F1E4D75607
:10266000DF56E6D336D736E4D3A6D7A6E656DF56EE
:10267000E4D716DF16E6D3A6D7A6E4D366D766E678
:1026800016DF16E4D386D786E6D366D766E4D3365C
:10269000D736E6D386D786F1F00AF1E4D756DF566F
:1026A000E5D336D736E4D3C6D7C6E556DF56E4D7EA
:1026B00026DF26E5D3C6D7C6E4D376D776E526DF70
:1026C00026E4D3A6D7A6E5D376D776E4D336D73695
:1026D000E5D3A6D7A6F1E4D756DF56E5D336D736ED
:1026E000E4D3C6D7C6E556DF56E4D726DF26E5D3C2
:1026F000C6D7C6E4D376D776E526DF26E4D3A6D7B9
:10270000A6E5D376D776F010F1E3D765E5D375E388
:10271000B5E5D765E325E5D3B5E395E5D725E3D35F
:1027200045E595E375E545F1F008F1E3D785E5D397
:1027300065E3B5E5D785E315E5D3B5E395E5D715AD
:10274000E3D345E595E365E545F1F008F1E3D79579
:10275000E5D3C5E375E5D795E355E5D375E3D7250F
:10276000E555E3D3A5E5D725E3D3C5E5A5F1F0030A
:10277000F1F295F296F296F1F295F296010AF002D4
:10278000F1F003F1DFE325E5D3B5E3D765E5DF2518
:10279000E3D795E565E3D375E5D795E3D3B5E5755F
:1027A000F1E3D72595F2A0F003F1DFE335E5D3C5DA
:1027B000E3D775E5DF35E3D7A5E575E3D385E5D741
:1027C000A5E3D3C5E585F1E3D735A5F003F1DFE354
:1027D00055E5D725E395E5DF55E3D7C5E595E3D383
:1027E000A5E5D7C5E325E5D3A5F1E3D755C5F002A7
:1027F000F1F003F1E3DF95E5D7B5E3DF25E595E3F8
:1028000045E525E3D715E5DF45E3D7B5E515F1E364
:1028100045DF85F1F1F29FF2A0F2A1F29FF29FF263
:102820009FF2A0F2A1F003F1E3DF85E5D775E3C5E0
:10283000E5DF85E335E5D7C5E335E5DF35E3D77576
:10284000E535F1E385DF35E3D3F002F1265696C690
:10285000D72656A6DF25D7A65626D3C6965626F1E6
:10286000F002F1DF76D7A65626D3C6965626E4F1B7
:10287000D7E3742496ACDF24E4D791E599E4DF161E
:10288000D316D726DF26D336D736DF46D346E3F234
:10289000A2F005F1D796D396D1C6D756D356C6F136
:1028A00096D196F005F1D336D786D386D736C6D3E0
:1028B000C6F136D786F2A2F005F1DF16D716D34659
:1028C000D796D396D746F116D316F005F1D326D76F
:1028D00076D376D726B6D3B6F126D776F005F1D3E0
:1028E000A6D756DF26D726D356D7A6F1A6DF56F0B1
:1028F00005F1DF46D746D376DF16D71676F146D3F5
:1029000046F003F1F27FF1F2A3020802F006F100B3
:10291000F1F2A7F00BF1F2A8F1E1D046360BE5D7C2
:1029200086E2DF860BE1160C160CD046360BE2DF92
:10293000860B06E1160B06D3C6B6A606DF160C16E6
:102940000C16000CF005F1F2A8F1F2AFF2A8F006B7
:10295000F100F1F2A7F004F1F2A8F1F2B403E2D72A
:1029600036030C36030C36030C455B0433F2B4001B
:10297000F005F1F2A8F1F2AFF2A8F00EF100F1F0DB
:1029800002F1E3F005F1D746D3C696F1D746000928
:10299000D3C6D76636F003F1D3C6D77646F1F00436
:1029A000F1D3B6D76636F1F005F1D3A6D75626F1A6
:1029B000A60009F004F1D1A6D0C6D326F1F004F1A7
:1029C000D3B616D736F1F1D3C626D746D3C626D707
:1029D00046D3C626D746D3C626D74616D336D756AD
:1029E00016D336D75616D336D75616D336D75626DD
:1029F000D346D76626D346D76626D346D76626D390
:102A000046D76636D356D77636D356D77636D3568C
:102A1000D77636D356D77646D376D78646D376D76B
:102A20008646D376D78646D376D78646D376D7865C
:102A300046D376D78646D376D78646D376D786468C
:102A4000D376D78646D376D78646D37608E2D37434
:102A50000904640904540204440104FF0200F0085C
:102A6000F1F202F1F033F1D3E685D7E585D3E645FF
:102A7000D7E545D3E665D7E565D3E615D7E515E691
:102A800015DFE515D3E6B5D7E5B5F1F011F1D3E6DD
:102A900055D7E555D3E675D7E575D3E625D7E525B2
:102AA000D3E655D7E555E625DFE525D3E6C5D7E5D9
:102AB000C5E695DFE595F1F20BF20DF20EF20DF29F
:102AC0000FF210F211F210F212F210F211E3D074C0
:102AD000D37505D0740873D17505D083D184D09394
:102AE000D19505D0A4D1A505D0A505BC063C06D13D
:102AF0002505D0C444D112E413E513E613E713F01F
:102B000005F1F202F1F20DF20EF20DF20FF210F2F7
:102B100011F210F212F210F211F210F216F00EF1A0
:102B2000F219F1E3D01AD11404D015052AD124D01A
:102B30007485053AD134D085A585654AB40453D14E
:102B40001505D063D14555D08BD19686768696866D
:102B5000F003F1F20DF20EF1F20DF20FF210F2119C
:102B6000F210F212F210F211F210F216F00EF1F26F
:102B700019F1F21FF003F1F219F223F1D0E314D1AD
:102B80001505D0146505B505D114D064D14454158C
:102B900005D0846505D145051454D314F003F1F232
:102BA00019F223F100F224E3D01B05540464D1454B
:102BB00005D07385058505A4D174D0B3C4B6A69697
:102BC0008676665646D1860C14D0140414D1160CA1
:102BD000D014D1160CB505D0A4D185A5D0B505D19A
:102BE00044D0446585F224E3D0140414D1850B1439
:102BF000860CD014D1A404D014D1B40414D314D0AE
:102C000014D1A58565758474847484A505D0A4D178
:102C10008505A4D0B4D34505D1B4D0C4D1C4D01453
:102C200003B6D11C04D0B6D11CD0A505B404B5059B
:102C3000D114D0B5054454B505440314D11404147B
:102C40007484D315054454D1B41505456504D0B436
:102C500013D11505D053D15505D064D1647505D075
:102C600074D1A484D084D1B4D0B4C41406D18696CF
:102C7000A6B5D315D1B585648414D0B4D1344C062F
:102C80005C0614D0A5B4758C0644BC06BC06AC0426
:102C900006BC0406A505B4D11C06D0B505D114D0D8
:102CA000B5054454B50544B41505B4D14505D3154F
:102CB00005D0B50B8404B505D11C06D06494A4548A
:102CC000445C066C067C068C0406AC06BC06D1850A
:102CD0000BD0CC06D11C0406D0B4D134445404D05B
:102CE00014D16404D01505D1740484D08505D19421
:102CF000D09505D1A4D0B4D1B4D0C505D1C4D3E307
:102D00001AE41AE51AE61AE712F006F1F202F1E601
:102D1000F008F1D71656D33686F1E7F080F1D116D8
:102D2000D316D116D316F1E5C5D7111A15F004F153
:102D30002616D3C6D716F131455A5512D366768179
:102D40008A85F004F196867686F155616A6512E609
:102D5000D018E718E5D312253A35E6D118E718E57B
:102D6000D312253A3551F004F166564656F182D712
:102D700012D3648AD7658A85DF355A55D7A686610E
:102D80006A65F004F176665666F1E761E3D18595F0
:102D900084253514D06C0684345505F002F1F01208
:102DA000F1F227F103F005F1F228F1F1F22EF22E03
:102DB000E3D054020454025404D1160CD054D1165A
:102DC0000CD05402045404C4D11434D08454B443F9
:102DD000340204340AD1160B0614D064341483046C
:102DE000D186030CD08404D1648505D083D164D00E
:102DF00064D1350564D01304D11403D0140AD1135F
:102E0000D0C404B983E483E3B3E4B3E3D113E4139C
:102E1000F22EF22EE3D054035403C40AD153D0A2AD
:102E2000E4A2E353E453E3D194E4AAE5A3E6A3E3E5
:102E300033E43303E3340904D083E482E582E4D34A
:102E400085E39BE493E593E693D0E32093D1940448
:102E5000D0A3D1A47494B505D0B4A4CAA67646264E
:102E60001304230433044304530463047173D1B57E
:102E700005C454D0C4D16484D0888302F20DF20E0C
:102E8000F20DF20FF210F211F210F212F210F21132
:102E9000F210F002F10008DFE385D785D385D185F4
:102EA000D085766656463626D116D01C03D116D06C
:102EB0001C03D116D01C04D316D11C0316D01C033E
:102EC000D116D01C03D116D01C03D116D01C04D3AC
:102ED00096D19B96D316D11C0466D06B66F1F2276F
:102EE000F227F23430F008F13404F1F234A0F008A3
:102EF000F1A404F1F234E3D08AE48185A6D15682AC
:102F0000E583E683E782F006F1F202F1D3E5F020F3
:102F1000F185D785D3F1E6F010F185D785D3F1E7B8
:102F2000F010F185D785D3F1E8F010F185D785D37E
:102F3000F100000203E7F24E000000F003F1D3E7D6
:102F400035E835E715E815E785E885E7D185E885B3
:102F5000E7D335E835E755E855E785E885E7D185D6
:102F6000E885F1F00FF1F236F1F002F1F23AF236C3
:102F7000F1F23BF23AF236F239F236F236D3E53577
:102F8000E735E515E715E585E785E5D185E785E2D0
:102F9000F002F1F23CF23DE3F1E4F23CF23DE5F205
:102FA0003CF002F1F23AF236F1F23BF23AF236D369
:102FB000E31AE51AE713E363E764E393E794E3BAFC
:102FC000E5BAE7B3E39AA6B6C6D7162636465666DE
:102FD000768696E3F012F1D3165686D77636D3C6A8
:102FE000F1165686D776F012F1D73616D346669686
:102FF000D786F13616D34666F012F1D3A67636D7C9
:10300000A67636F17636DFA6E2F00AF1D78636D319
:10301000B68636D7B6F18636D3B68636E1F007F1F6
:10302000D7C68646D3C68636F1C68646D1C685F053
:1030300004F1F23FF1F002F1D013D1160CD01403D9
:10304000D113D0E1F006F11505F1E28303D1160B9F
:103050000683D0E1F006F18505F1E223D1160CD00C
:103060002403D123D0E1F006F12505F1E29304D148
:10307000160B06160C9B8636D084A505650584D1F3
:103080001484F1F23FF23F01F002F1E2D115D01BBE
:1030900001D115D01B03D185D08B08D125D02B01B0
:1030A000D125D02B03D195D09B09D185D08B02F1AE
:1030B0000804E1F002F1F24A04E2F1E3F002F1F275
:1030C0004A04E4F1E5F002F1F24A04E6F1E7F00225
:1030D000F1F24A04E8F1010802F006F100F1F00310
:1030E000F1D1E216E314160BE216E3150608F1D14E
:1030F000E216E31B1604E2160B06E3D08C06D1ACF5
:1031000006B48C06A6B6A564748C06E266E36CD0A1
:1031100094D124F002F1F003F1F253F1F254F1F002
:1031200004F1F253F1F255F255F25DF002F1F003C1
:10313000F1F253F1F254F1F004F1F253F1F255F2DD
:1031400055F25DF260F004F1F262F1F267F004F121
:10315000F26AF1F003F1F253F1F254F003F1F26A82
:10316000F1F26DF25DF260F004F1F262F1F267F2F9
:103170006FF273F253F253F273D3E156E25C3525EA
:10318000E3D1C505A4E2C6E3CC7494A505E2C6E389
:10319000CCB4A4E2D326E32CE2D196E39CE276E31E
:1031A0007CE256E35605E2D0C6E3CCF003F1F253DD
:1031B000F1F003F1F003F1D0E31AE41AE51AE61A8C
:1031C000E71AE81114F1E3D01AE41AE513E61AE756
:1031D0001AE813F1F002F1D0E264036403640A64B4
:1031E000046403640A660CD134E186E28CE156E2A1
:1031F0005CE166E26CF1D0E254035404D1860CD059
:103200005404D1560CD0B4C505560CD134E186E235
:103210008CE156E25CD094D0E2A48494A50BD1A6B4
:103220000CD0A404D1860CA60C24D0A60CD184E129
:10323000D326E22CE1D1A6E2ACE1866636D0C6D038
:10324000E234033403340A340434033404D1360B37
:1032500006D0360CC4E1D156E25CE126E22CE13620
:10326000E23CD0E28403840384D134460C54D084FD
:10327000048403840A860CD154E1A6E2ACE176E230
:103280007CE186E28CE6F025F1D386B6D716F1868E
:10329000E6F025F1D36696B6F166E6F025F1D38621
:1032A000B6D716F186F002F1D0E1C6E3C40CD1C660
:1032B0000CE1D0C6E3C50306E1C6E3CC04D1C60BDE
:1032C00006E1D0C6E3C50306D1C6030CC60B06E172
:1032D000D0C6E3CC04D1C505D08505D13505E1D0F4
:1032E000C6E3CC04A4E1C6E3CC04F27ED0E196E3CD
:1032F000940CD1960CE1D096E3950306E196E39CFD
:1033000004D1960B06E1D096E3950306D1960B0601
:10331000D094D1960CD0B404E196E39C03D125055A
:10332000E1D096E39CB5057505E196E39C7505F241
:103330007EF1D1E32AE42AE52A2CD0364656667679
:103340008696A6B6E3CAC2C6B6A696E38AE48AE51E
:1033500083F004F1F262F1F267F26FD1E2B48464B7
:10336000442464B4E1D344D1E2F004F1A505F1A50D
:103370000BF004F1A505F1A5020BF004F1A505F190
:10338000A50BF004F1A505F1A50A05D0A4E5A5E774
:10339000A5E8A508D002F004F108F1F002F1D3E5A8
:1033A0005203E65203E75203E85203F1F01FF1E53E
:1033B00054E6D754E5D3A4E654E5D754E6D3A4E5C0
:1033C00054E6D754E5D3A4E654E5D754E6D3A4F1A4
:1033D0000001F002F1F005F1F284F1F285F284F2DD
:1033E00084F1F288F288F289F289F288F288D0E2D8
:1033F000C2E3C2E4C2E5C2E6C2E7C201F28BF28ECA
:10340000D1E254E35404E1D7560CE3D3C404E2D12F
:1034100054E3D3C4D752E552E2D144E344D75444F1
:1034200054D3C4E2D144E344D7547AE572E2D134B0
:10343000E33404E1D7560CE3D3C404E2D134E334DB
:10344000D792E592E2D124E32404D7849454E2D1C4
:1034500024E324D7A2E5A2E2D114E31404E1D75671
:103460000CD3560B06E2D114E314E4DF1404E3D7C3
:10347000C5DF15D7C4E4A3DF13D7A5CBDF5404D72A
:1034800093D0E2C4E3C4D753E446362616E5D3C648
:10349000B6A696E1560A0CE3D17304E674E39304EE
:1034A000E694E3A304E6A4E3B304E6B4E3C6D316C8
:1034B000D1C5C8C4B6A6968646362616D0C8CAD187
:1034C00016263646F28BF28EF28BE2D074E3740944
:1034D000E2C4E3C409E254E3540103E2D3C403C4E5
:1034E000E2D0A304E1D7560CD3560B06E2D0A30AD0
:1034F000E1D7560CD3560CE2D0A505D1C4A505D012
:10350000A304E1D7560CD3560B06E2D0A303A505BE
:10351000E1D7560CD356E2D19CA4D0A404D1130415
:10352000E1D7560CD3560B06E2D1130AE1D7560C5D
:10353000D3560CE2D1841505D0A4D11304E1D7569B
:103540000CD3560B06E2D113E156E25506E166E2D2
:103550006506E186E28CE1A6E2A506E1D316E21C4F
:10356000E1D1B6E2B506E1C6E2CCE186E28506230A
:1035700004E1D7460CD3560B06E2D123032505E11F
:10358000D7460CD3560CE2D12505D324D1C505234B
:1035900004E1D7460CD3560B06E2D1230AE1D74605
:1035A0000CD356E2D0CCD1B4250545051304E1D7A0
:1035B000360CD3560B06E2D11303C505E1D7360C02
:1035C000D356E2D0CCD114D315055505D11304E15F
:1035D000D7360CD3560B06E2D113E1D7261605D306
:1035E000A69605A69605D7360CD3560B06A6968644
:1035F00076665605E2D0C304E1D3C60C560B06E24C
:10360000D0C303C505E1D3C60C56E2D19C0494A4F3
:10361000D0C304E1D3C60C560B06E2D0C303D15489
:10362000E1D3C60C56E2D17C04A5CBD0C3E3C3E4FE
:10363000C3E5C3D3F00BF15626A6F106E55606E224
:10364000A606E5A606E2C606E5C606E35606E55664
:1036500006E3A606E5A606E3C606E5C606E45606A4
:10366000E65606E4A606E6A606E4C606E6C606E5AF
:103670005606E75606E5A606E7A606E5C606E7C629
:1036800006E6D154A4C4D344E5F004F1D3F020F10C
:103690005696C6F1F010F156B6D726D3F1F010F1D8
:1036A00056A6D716D3F1F1D3E336465255E4525419
:1036B000E55254E659E7590204F002F1E1D086E2FE
:1036C000828B8604D18403E68403E684E1D066E23B
:1036D0006B66E186E28B8604D18403E684E1D086C2
:1036E000E28B86E6D18403E28404E1D066E26B6675
:1036F000F1F002F1E1D056E2525B5604D15403E5F9
:1037000054E1D7560CD3560CE6D154E1D066E26BA7
:1037100066E156E25B5604D15403E554E1D056E22B
:103720005B56E6D15404E1D7560CD356E2D15C0483
:10373000E1D066E26B66F1F008F1E1D025E2292BD9
:1037400003E2D123E1D3560B06E2D193D323D193E5
:103750002393E1D025E2292B03E2D123E1D35602C2
:103760000B06560A0C56040CF1F299F29AD0F008A6
:10377000F1E22C06E32C06F1F007F1E24C06E34CF3
:1037800006F1E24C06E3466696B6F008F1E2CC0696
:10379000E3CC06F1F008F1E2AC06E3AC06F1F29AF4
:1037A000F299F010F1E22C06E32C06F1F299F00800
:1037B000F1E28C06E38C06F1F33AF004F1E2AC0698
:1037C000E3AC06F1F34EF002F1E2CC06E3CC06F1F5
:1037D000D176C6D35696A4D724A4F33AE4DF52E6B2
:1037E00052E7525406E3D316D1C6B6A69B96F32AE7
:1037F000E3D082E482E372F325E472E3A2E4A2E37D
:10380000F32082E482E3D112E412E3D0B2F330E495
:10381000B2E3D122F33AE422E3F34ED0C2E4C2E3AE
:1038200051E551E751E850580802F00FF1F2A4F1C8
:10383000D1E115E2D01A15D1B6D356D1B6D356047C
:10384000E1D015E21504D145E345E445E545E255EF
:10385000E355E455E55503E155E2D05BF2AAF002E9
:10386000F1F2ACF2A4F1F2ACF2ADF2ACF008F1F28C
:10387000A4F1F2B5E2D01404D3B6030CB60CD01404
:1038800004D3B60B06D014D71AD3B3F2B5F2AAF00C
:1038900002F1F2ACF2A4F1F2ACF2ADF2AC0000F045
:1038A00004F1E2D01AD1160B06D0160CB4D1150AC9
:1038B00005D046030C460B06B60B06B60CD1460CDB
:1038C0001604D01605B4D11403D086020CD1160C00
:1038D000F1E2D01AD1160B06D0160CB4D11503059F
:1038E0004454D0B4D115058404D0B60B06B60CD11F
:1038F000460C1604D01605B4D114644414D0B4D1C7
:103900004414D0B4D114E2D0CAD1460B06D0C60CB0
:10391000A4C50305450BA4C50305A60B06A60CD13B
:10392000360CD0C604C605A4C4D17404160CD074D9
:10393000D14333F002F1D1E222D32505E1C50BD109
:103940002505E3D72505E5D394E12505E2D754E124
:10395000D12505D32505E2D754E364E1D32505C578
:1039600005D12505C505E2D72C06E4D394E325054A
:10397000E1CC06D7442505E2D12A1AD0C2D1C5052B
:10398000E1D3A50BD0C505E3D3C505E574E1D1C5E9
:1039900005E2D734E1D0C505D1C505E2D734E3440B
:1039A000E4D1C505E1D3A505D0C505D1A505E2D370
:1039B000CC06E474E3D1C505E1D3AC06D724D3C566
:1039C00005E2D0CAD11AF1E3D12A3A4A5A7108D194
:1039D000E2C40904240904740204C40204E1D0C44A
:1039E0000AFF02F32E000000F013F109F1393953F8
:1039F0005454545555393353464B06444545393391
:103A00000955555555335404545656565633444467
:103A10002446464B344444F205F206F2073454146B
:103A200034445454464C544434544414345414349C
:103A3000445454464C56565656443454464C5555A8
:103A40003454143425255454464C543444544414AA
:103A50003434363C363C445434464C544434444666
:103A60004C4444464CF205F206F007F1F20CF134F6
:103A7000543454440104565656563454443455551F
:103A8000443424443456565656464C344414344632
:103A90004C40083456565656445555F007F1F20C32
:103AA000F1F213F217F00EF1F218F13353533453CD
:103AB000545343545A32344A4A4AF00BF1F20CF14F
:103AC000F213F217F00EF1F218F100F00EF1F21805
:103AD000F1F33544555524464C544424444434446D
:103AE000552554464C1444F008F1F20CF1F32E0025
:103AF0000000F338F013F100F1F225F002F1F012BA
:103B0000F1F226F100F225F1F338F00CF1F226F192
:103B100034035555345434045454340A464C040088
:103B2000F32EF2253353333434345454464C345545
:103B300055464C44F005F13354F13304330233035A
:103B400033034444330233033303344545464C14B2
:103B5000F007F1F20CF1F213F002F100003A3453E5
:103B600033464B0654345333143A464B06533346CC
:103B70004B06F1F20CF205F206F207F205F34230C1
:103B8000F32EF009F100F102F03AF100F1464C0495
:103B9000344454464C34044444F004F1F23EF134CD
:103BA00004540434045404440454045404340454A5
:103BB00054464C04344454464C34044444F23EF2DB
:103BC0003EF008F1F240F241F1F002F1F003F1347D
:103BD0005454342454464C04F006F1265CF1F1F2BE
:103BE00041F1F002F1F245F240F241F14414555531
:103BF00026262626464C5424464CF004F1F245F184
:103C0000080000040802F006F100F1340334025405
:103C10000A540A3403345404240454042404540479
:103C20002454340414345404240454042434541404
:103C3000245434542444541424464C544434565C80
:103C40003444464C464CF00EF1F252F1F25AF00E6A
:103C5000F1F252F1F25AF25AF004F1F263F1F26524
:103C6000F265F00CF1F252F1F25AF25AF004F1F26C
:103C700063F1F265F265F271F27234245444542413
:103C80005444244454345434442434245444542454
:103C90005555464C5444344646455434454544F203
:103CA0007200F252F342F252F34FF252F005F10079
:103CB000F101F002F1F003F1F252F277F1F252F178
:103CC000F002F1F252F277F1F252F252F002F1F216
:103CD00052F277F108030353545453545555342486
:103CE000464C14F002F1F27BF1F002F1464C5454D0
:103CF000464C5434464C5C5C5544345656565646F5
:103D00004C3414545555345555464C464C161616DD
:103D10001624454514464C464C44F003F1F27BF121
:103D2000F1464C5454245434464C5C5C5544345451
:103D30003314545555245555464C34542445451494
:103D4000464C464C44F004F1F263F1F265F265F240
:103D500071F27144444444440444444444440434AB
:103D6000454534464C444444444404444444444457
:103D7000342626262614430508F32A02F01EF100F5
:103D8000F108F016F1F286F10000F007F1F28CF183
:103D9000F28FF006F1F28CF1F292464B06080352D4
:103DA000525333464C444454F007F1F28CF1F28FF5
:103DB000F006F1F28CF1F292F28FF007F1F28CF151
:103DC000F28FF28CF28CF00CF100F101F33A08F36F
:103DD0004E08F332F006F100F1F003F134245454AC
:103DE000541424345555243454464C143454F1544A
:103DF000565656561424543454464C54143454468F
:103E00004B064444F322F007F1F297464B06535415
:103E100054464B062343F1F297F32A464B06555579
:103E2000444454464B06244545464B06F003F1F204
:103E300098464C2434464C54143444555544345418
:103E4000464C143444F1F298F009F100F1020802F2
:103E5000F006F100F1F2A5F00BF1F2A6F1F2A9F0F3
:103E600005F1F2A6F1F2AEF2A6F006F100F1F2A52C
:103E7000F007F1F2A6F1F2A9F005F1F2A6F1F2AE27
:103E8000F2A60000F00AF134545455555424541449
:103E9000464C545454245414245343541414060CC0
:103EA000464B0634145555244414F134033403347A
:103EB000033403340A340A44342434555514544426
:103EC00054464C34244000FFD7E4F008F1061CF1BE
:103ED000FFD3F008F1E565D766D3E666F1FFD3F0CE
:103EE00004F1E685D7E585D3F1FFD3E56414D71453
:103EF000D1E6B4D3E58444FFD7E315D3E615D1E585
:103F0000B5D7E615D3E485D1E6B5D3E445E685E437
:103F100065E645E415E665FF3454143444545446CC
:103F20004C54443454441454464C3444544454562D
:103F30005656562454245414445434445555FF546E
:103F40003455551444543434545434345555464C33
:103F500054454534543454445454441444464C5405
:103F60005555464C5446464646FF34541434144482
:103F700034464C54443454441454464CF004F13503
:103F800055F14434464C26262626F004F13555F1E9
:103F900044F003F116162626F154445555144454A2
:103FA00055554416161616262626263446464646E7
:103FB0005555464C544545F002F136363636565680
:103FC0005656F1464C5656565654441444441446DC
:103FD0004C262626263636363646464646FFD3E556
:103FE0002454D724D1E6C4D3E5945474FFD7E325F1
:103FF000D3E655D1E5C5D7E625D3E495D1E6C5D3BB
:10400000E455E695E475E655E425E675E455E625C0
:10401000FFD3E3C6B6A6968676665646362616FFC4
:10402000D1E316D0C6B6A69686766656463626FFE5
:10403000345434544454F002F154464C54443454EF
:104040004454F154345454345444344444FFD0E37D
:10405000140414F003F103D11404D0140314F1D1A7
:1040600015054505D014B4D114FFD0E3140414F0A1
:1040700002F103D11404D0140314F103140484B521
:1040800005B505A404B4D144D043FFD0E31404140F
:10409000F002F103D11404D0140314F14314631497
:1040A000731483B4D114FFD0E374D37505D07404B2
:1040B000D37505D17404F002F1D074D3750BF1D12E
:1040C0005474D074FFD3E3047505D07404D375051C
:1040D000D17404D074D37505D15505D074D175054C
:1040E000A505D074D15474FFD3E3047505D07404CE
:1040F000D37505D17404D074D37505D15505440426
:104100005505445474FF34543454445454464C5468
:10411000443454445454464CFFDF3C067C063C0671
:104120001B1606D7BC06DF2C066C062C06D7CBC6A2
:1041300006AC0306DF1C065C061C06D7BBB6069C55
:1041400006D3F008F1E787D787D3F1F008F1E587C8
:10415000D787D3F1F008F1E487D787D3F1E2F006EF
:10416000F187D787D3F177676747FFD3E3F002F191
:104170007636D1C6D3F1E5F002F17636D1C6D3F169
:10418000E3F002F16636D1B6D3F1E5F002F166361E
:10419000D1B6D3F1E3F002F16626D1B6D3F1E5F062
:1041A00002F16626D1B6D3F1E3F002F15626D1A68C
:1041B000D3F1E55626D1A6D35626D1A603E3F002C5
:1041C000F1D35616D1A6F1E5F002F1D35616D1A6D9
:1041D000F1E3F002F1D34616D196F1E5F002F1D306
:1041E0004616D196F106E6D7F008F1E787DF87D7C4
:1041F000F1F008F1E587DF87D7F1F008F1E487DF18
:1042000087D7F1E2F006F187DF87D7F106FFD0E329
:10421000F002F18404D18505D0F17404D17505D084
:104220007404D314D16474D06404D16505D06403DC
:104230000DD7F008F1E687DF87D7F1F008F1E587C1
:10424000DF87D7F1F008F1E487DF87D7F1E3F006E5
:10425000F187DF87D7F107FF345555443454543480
:104260005444345434464C4434544434544409F093
:1042700010F157F1FF3454245444542454FFD0E433
:1042800014D1E31505E2D0146505E4B505D1E314B6
:10429000E2D06414FFD3F004F1E7D716D386D766D3
:1042A000D3B6E6D716D386E5D766D3B6E4D716D30A
:1042B00086E3D766D3B604F1FFD3F004F1E7D7164F
:1042C000D386D756D3B6E6D716D386E5D756D3B618
:1042D000E4D716D386E3D756D3B604F1FFE31646E8
:1042E00086E4F004F1164686F1E6F003F116468600
:1042F000F1E31666A6E4F004F11666A6F1E6F0080E
:10430000F11666A6F106E386B646E4F004F186B639
:1043100046F1E6F003F186B646F1E366A616E4F050
:1043200004F166A616F1E6F008F166A616F106FF9E
:10433000E3265696E4F004F1265696F1E6F003F1F2
:10434000265696F1E32676B6E4F004F12676B6F129
:10435000E6F008F12676B6F106E396C656E4F004D8
:10436000F196C656F1E6F003F196C656F1E376B63D
:1043700026E4F004F176B626F1E6F008F176B626EA
:10438000F106FFD3E3265696E4F004F1265696F1A3
:1043900006E33666A6E4F004F13666A6F106E346C7
:1043A00076B6E4F004F14676B6F106E35686C6E446
:1043B000F004F15686C6F106FFD3E314D11505D0FB
:1043C0001465D115A4B4D3450514D175654484D0C2
:1043D000B4D11505D064D186BCD0CC06FFD7F0028D
:1043E000F1E5660C660CE46505F1E5660C660C66A5
:1043F0000CE46505E5660CE46505E5660C660CE411
:104400006505E5660CFFD7F002F1E5560C560CE4A5
:104410005505F1E5560C560C560CE45505E5560CC1
:10442000E45505E5560C560CE45505E5560CFFD34E
:10443000F002F1E5B60CB60CE4B505F1E5B60CB644
:104440000CB60CE4B505E5B60CE4B505E5B60CB65E
:104450000CE4B505E5B60CFFD7F002F1E5160C1635
:104460000CE41505F1F004F1E51606F1FFD0E314B4
:104470000A1404D114D01404D144D01484B4D11437
:10448000D01505D31505D14454D01404D1B60C145D
:10449000B60CD014D14505B4D014D115054505D0BE
:1044A00014B4D114FF52525334144454555544FF9C
:1044B000345424345454342454545454445454548C
:1044C000FFD1E316D01B0406D116D0150306D11672
:1044D000D0150306D116D0150406D316D11504063F
:1044E00016D01506D1C6D0CCD316D11CFFD7E455B3
:1044F000E655E415E615E435E635E4D385E685E4CE
:10450000D755E655E415E615FFD3E3968A8CE58387
:10451000E683E3665A5CE553E653E3D7261A1CE5C7
:1045200013E613E3463A3CE533E633E3D365768C92
:10453000766366E562E662E762FFD3E3B6AAACE5BE
:10454000A3E6A3E3867A7CE573E673E3D7665A5C59
:10455000E553E653E3463A365686A2FFD3E3657643
:104560008C766366E562E662E762D0E682E582E425
:1045700082E382FFF003F1DFE336D78656E5DF36CC
:10458000D78656E6DF36D78656E7DF36D78656F12A
:10459000FFF003F1DFE336D79666E536D39666E69D
:1045A00036D19666E736D09666F1FFD0E364020412
:1045B000640964D1360C14FFD3F002F1F002F1E388
:1045C000D756D3A666E4D756D3A666E5D756D3A664
:1045D00066E6F005F1D756D3A666F1F102F1FFD3F6
:1045E000F002F1E3C68656E4C68656E5C68656E670
:1045F000F005F1C68656F1F1FFD3F002F1E3A666AD
:1046000036E4A66636E5A66636E6F005F1A6663619
:10461000F1F1FFD3E3B6C6D7191BF008F12616D384
:10462000C6D716F1FFD7E347D3E44DD7E367D3E40A
:104630006DD7E397D3E49DDFE347D7E44DDFE3672E
:10464000D7E46DDFE397D7E49DFFD0E322E428E3CE
:10465000F008F12404F1FFDFE32414D79464442428
:1046600014D39464442414D194644424FFD3E535D2
:10467000E735E515E715E585E785E5D185E785E5C6
:10468000D335E735E555E755E585E785E5D185E798
:1046900085FFF007F1D3E515E715E585E785E5D159
:1046A00085E785E5D335E735E555E755E585E785C4
:1046B000E5D185E785E5D335E735F1FFF003F1D1A5
:1046C000E414E614F002F1E5D714E714E5D334E777
:1046D00034E4D115E615F1E5D714D314F1D1E4147F
:1046E000E614E4D714E614E4D334E634E4D115E652
:1046F00015E4D714E614E4D184E6C6E4D31CD1143F
:10470000D33555D0C5E6C5FFD7E316D3131CE51A3C
:10471000E713E3D766D36B66E764E3D796D39B963C
:10472000E794E3D7B6D3B3BCE5BAE7B3E3D796D300
:10473000939CE59AE3D786D38A8CE582FFD7E3166C
:10474000D3131CE51AE713E3D756D35B56E754E3BC
:10475000D786D38B86E784E3D7C6D3C3CCE5CAE735
:10476000C3E3D715DF36D73336E53AE3DF16D71A7A
:104770001CE412E512E611FFD7E316D3131CE51A69
:10478000E713E3D766D36B66E764E3D786D38B86FC
:10479000E784E3DF16D7131CE51AE713E3DF36D708
:1047A000333CE73AE355DF66D76A66E763E335DF14
:1047B00056D75A56E753E3DF16D71A1CE512E6120E
:1047C000E712FFF002F1DF86563616D78656361608
:1047D000F1FFF002F1D786563616D386563616F11B
:1047E000FF3404542444045404540424544404540E
:1047F00004340454244404540454240454445454A9
:104800003403542444045404545424544404543469
:1048100044464C542444544444FFE2D013D1160C73
:10482000D01403D11304160CD013D11BD0C6A68309
:1048300003D1160B068304160CD083D1658BD023CD
:10484000D1160CD02403D12304160CD024D194D03B
:1048500024365666869304D1160B06160C9B8636B4
:10486000D084A505650584D11484FF3454543424C0
:1048700054464C54545434543454FF3454543454E3
:1048800054464C5454543454464C34FFF002F1E234
:10489000D34686D7164686DF1646854616D7864601
:1048A00016D38646F109F002F1D1C6D33686C6D7B3
:1048B0003686C6DF35D7C68636D3C68636D1C6F12C
:1048C00009F002F1D36696D7266696DF26669566CE
:1048D00026D7966626D39666F109F002F1D31646DE
:1048E00096D7164696DF164516D7964616D39646A1
:1048F00016F1F002F1DF665616D7A686665616D375
:10490000A6866656F1FFE1D71646D386B6E3F007D2
:10491000F1D71646D386B6F1E1DF86B605E3F0059A
:10492000F186B605F1E1D386C6D73666E3F007F126
:10493000D386C6D73666F1E1DF86C605E3F005F11A
:1049400086C605F1E1D72666D396D716E3F007F1C0
:10495000D72666D396D716F1E1DF669605E3F00514
:10496000F1669605F1E1D396D7164686E3F007F196
:10497000D396D7164686F1E166561686E3F005F122
:1049800066561686F1FFE2D7B6DF1CD78444D3847F
:10499000446484D715054414D384E1450514D184B7
:1049A000E2C4D38434CCD716263C84C4DF3484C418
:1049B0008434D7C505668C6424D39464DF166C24D4
:1049C000D7946C0624D395056495052C066495054B
:1049D000D714364C94DF1444846414D784466C1482
:1049E000D38464E1154585D7154585DF1545854593
:1049F00015D7854515D38545E2150535054505656A
:104A0000058505C505E1D185C5D33585C5D735856E
:104A1000C5DF35D7C58535D3C58535D1C5E2D38644
:104A2000D18506D3A6D1A506D3C6D1C506D716D340
:104A30001506D736D33506D746D34506E125659505
:104A4000D7256595DF2565956525D7956525D3958A
:104A500065E224446505B494D724668C441505D3D7
:104A60009484441484A5D7153545E1DF56D75506FF
:104A7000DF66D76506DF86D78506DF1CFF3A14534D
:104A800033464B0654345333143453464B06533495
:104A900054464B06FFF002F1D71646D386B6F1FF17
:104AA000F002F1D386C6D73666F1FFF002F1D726C1
:104AB00066D396D716F1FFF002F1D396D716468645
:104AC000F1FFD34686D7164686DF164686FFD1C647
:104AD000D33686C6D73686C6DF36FFD36696D72648
:104AE0006696DF266696FFD3164696D7164696DF5D
:104AF0001646FFD1F35A14F3464484D3F33C1444CE
:104B0000F33884D714448444F33714D3844414D141
:104B10004414F3503464F34684C4D3F33C34F33286
:104B20006484C4D734D3C4F337846434D1C4F33C2D
:104B300084F34664F3461454F34184B4D3F3381435
:104B40005484B4D714D3B4845414D1B48454F33CEF
:104B50001464F33794D31464F33594D7146494F342
:104B6000376414D3946414D19464346494C4D334F7
:104B70006494C4D734D3C4946434D1C49464F332F9
:104B8000148444D314D1F33784D344148444D7F326
:104B90005014D384D744F35A148444F364C4F3C840
:104BA000DF12F32800F33C14F332D784F33044D3FC
:104BB000844464F32C84D72434D3C4844434F32849
:104BC000D1C4D334644484B4D74484B4DF4484B4BB
:104BD0006434D7B46434D3B464DF5414D784541425
:104BE000D3845484146494D7146494DF1464B46438
:104BF00034D7B46434D3B464D1B4D34484B4D74484
:104C000084B4DF446434D7C4946434D3C494D744A4
:104C100014D3844414D1844484D39464DF14D7948B
:104C2000D3C484DF34D7C4DF14D78444D384140AB4
:104C3000D7154585DF15450BD385C5D73585C5DF28
:104C40003504D3154585D7154585DF15D785451519
:104C5000D38545150BDF14D7844414844414D374CE
:104C600084D1C4D3347484C4D73464154585DF1526
:104C7000450BD385C5D73585C5DF3504D3154585A7
:104C8000D7154585DF15D7854515D38545150B14F3
:104C90005484D714D33464B4D764D384B4D744844D
:104CA000D3C4D73484C4D3155585D7155585DF159E
:104CB0005515D7855515D3855515556595D7156562
:104CC00095DF15659585956515D7956515D395D1AE
:104CD000B5D33565B5D73565B5DF35D7B56535D3CA
:104CE000B56535D1B5D3354585B5D74585B5DF45EE
:104CF00085B58545D7B58545D3B585D195D31545BA
:104D000095D7154595DF15D7954515D3954515D1FB
:104D100095D3153575A5D73575A5DF3575A57535C9
:104D2000D7A57535D3A5759464DF14D794D3C484FF
:104D3000DF34D7C4DF14D78444D384140ADF441487
:104D4000D7844414844414DF34D7C48434C48434F2
:104D5000D3C4DF4414D7844414844414DF34D7C448
:104D6000844434453545354535DF845414D784545F
:104D700014D3B484DF6414D7946414D3946454DFDC
:104D80006434D7B4946434D3B494DF44D7B4844443
:104D9000D3B4D744D384B4DF3414D7C494846444E4
:104DA0003414D3B49484647484149464DFF332149C
:104DB000D794D3C4F33C84DF34D7C4DFF34614D78D
:104DC00084F35054D3F35A84F3C812FFDFE415E69A
:104DD00055E4D765E6DF15E4D7A5E665E4DF15E61B
:104DE000D7A5E4B5E6DF15E4D7A5E6B5E4DF15E61B
:104DF000D7A5E4DF55E615FFD3E366D736D3B6660D
:104E000004E766D736D3B666E366D736D3B666040C
:104E1000E766D736D3B6660204E366D736D3B666FE
:104E200004E766D736D3B66603FFD3E366D736D337
:104E3000B66604E766D736D3B666E366D736D3B62A
:104E40006604E766D736D3B66603E4F005F1B666C6
:104E5000D736D3F1B666F005F1D386D71656F1FFF3
:104E60003454542444345434545414544454142462
:104E7000FFD1E216E31B1604E216E31C04E6160C4F
:104E8000160CE2B6E3BC04E2A6E3AC04E2D0B6E35F
:104E9000BC04E2D166E36CE6160CE1160CFFD1E22D
:104EA00016E31B16D3160CE2D116E31C04E6160C0F
:104EB000E2160CB6E3BC04B6D31C04E2D116E31C24
:104EC000E2A6E3ACE266E36C768CE236E33CFFD12B
:104ED000E236E33B3604E236E33C04E6360C360CBD
:104EE000E2D316E31C04E2D1C6E3CC04E216E31CD1
:104EF00004E286E38CE6360CE1360CFFDFE435E6AF
:104F000075E485E635E4D7C5E6DF85E435E6D7C543
:104F1000E4DF15E635E4D7C5E6DF15E435E6D7C5A9
:104F2000E4DF75E635FFD704E216E3D31506E2D7D2
:104F300066E3D36C84E2D7A6E3D3ACE2D7B6E3D37F
:104F4000BCD7143505E2DF56E3D75C648505C6DFC0
:104F50001CD78464D3C4D714FFD7E335E2DF56E30C
:104F6000D75456E654E2DF66E3D76CE663E2DF1619
:104F7000E3D7131CE51AF002F1DFE236E436E2D79C
:104F8000B6E4B6E286E486E216E416F1FFD7E365FE
:104F90008BE684E1DF66E3D76CE663E1DF16E3D7F7
:104FA0001B16E413E1DF36E3D73B36F002F1D7E21C
:104FB000A6E5A6E286E586E236E536E2D3A6E5A6D4
:104FC000F104E2D736E3D33506E2D786E3D38CA4E7
:104FD000E2D7C6E3D3CCE2DF16E3D71C345505E2B3
:104FE000DF76E3D77C84A505DF263CD7A484243470
:104FF00055E2DF76E3D77476E674E2DF86E3D78C9A
:10500000E683E2DF36E3D7333CE53A04E1C6E2D398
:10501000C6E5C5E2D735E535E255E555FF340A4426
:1050200004342445454434464CFFDFE166E2D76B47
:1050300066E464E1B6E2D3B506E1DF56E2D7550691
:10504000E1DF66E2D76C355BE454E1B6E2D3B50646
:10505000D7150536E1DF56E2D755FFD3E236A6B6BF
:1050600066E3F002F136A6B666F1E45505B505D75C
:105070003505E2D33686B656E3F002F13686B656EB
:10508000F1E465058505D714FFD1E33A0A1A04D087
:1050900083FFDFE186E2D78B86E484E1DF16E2D787
:1050A0001506E1DF76E2D77506E1DF86E2D78C559B
:1050B000ABE4A4E235057505A505FFD3E2F003F1E5
:1050C00056C6D716D386F1E47505D715055505E202
:1050D000F003F1D356A6D736D376F1E4A505D7353C
:1050E000057505FFD1E33A0A2A8505D08505D12447
:1050F000FFD3E286A6D716663616D3E386A6D71662
:10510000663616D3E486A6D716663616D3E586A687
:10511000D716663616E6F002F1D386A6D71666369F
:1051200016F1D3E586A6D716663616D3E486A6D73B
:1051300016663616D3E2A6C6D736865636D3E3A60B
:10514000C6D736865636D3E4A6C6D736865636E553
:10515000F002F1D3A6C6D736865636F1D3A6C6FFDF
:10516000D1E116E3140CD3160CE1D116E3150306B6
:10517000E116E31506D3160B06E1D116E315040676
:10518000C60C160CD3160CE1D116E31506860CE1FD
:1051900036E33506E1A6E3ACE116E31506C60CFFDF
:1051A00034542434464C5434542434555524464CF9
:1051B0005454443454464C44FFD7E2C5DF1915E338
:1051C00019E419E519E61214E335051AD7C4DF14FA
:1051D000D7A4C3A40A84A4948444547555442434A5
:1051E00015D3B5A4948284E58284E6828404E2D750
:1051F000658496863415D3C5B5A5748494FF34545C
:105200004545544454464C44FFD3E384D7150535F3
:10521000058505B4DF15053505D785059465054475
:10522000260CD3C4D7450594DF162CFFD0E284D1D9
:10523000143484B4D31434D18494644424D0C4D1B9
:105240004494D324FFD3E286A6D716663616D3E35A
:1052500086A6D716663616D3E486A6D71666361601
:10526000D3E586A6D716663616D3E686A6D7166683
:105270003616D3A6C6E3DF35E5D765E3DF15E5359A
:10528000E3D785E5DF15E3D765E585D3E25676A656
:10529000D736D3C6A6D3E35676A6D736D3C6A6D37B
:1052A000E45676A6D736D3C6A6E5F002F1D35676F5
:1052B000A6D736D3C6A6F1D15676FFD7E2166686B4
:1052C000E3DF3616D786E4166686E5DF3616D78620
:1052D000166686DF36E26636D7B6E34686B6E4DF84
:1052E0006636D7B6E54686B6DF6636D7B646E226D8
:1052F0007696E3DF4626D796E4267696E5DF4626C1
:10530000D796267696DF46E27646D7C6E35696C609
:10531000E4DF7646D7C6E55696C6DF7646D7C6564C
:10532000FFD1E226E32B2604E226E32C04E6260C3A
:10533000260CE2C6E3CC04E2B6E3BC04E2D0C6E34A
:10534000CC04E2D176E37CE6260CE1260CFFD3E325
:1053500076D746D3C67604E776D746D3C676E376C5
:10536000D746D3C67604E776D746D3C6760204E39B
:1053700076D746D3C67604E776D746D3C67603FFFC
:10538000D3E376D746D3C67604E676D746D3C67639
:10539000E376D746D3C67604E676D746D3C67603F9
:1053A000F005F1E4C676D746D3F1C6FFD1E226E395
:1053B0002B2604E226E32C04E6260C260CE2C6E3A8
:1053C000CC04E2B6E3BC04E2D0C6E3CCE28494A40D
:1053D000B4FFD7E2A4750554360C145505A4DF3488
:1053E000FFD1E2A47454341454A4D334FFD7E2366A
:1053F00086A6E3DF5636D7A6E43686A6E5DF563620
:10540000D7A63686A6DF56E2865616D7E366A6DF0F
:1054100016E4865616D7E566A6DF16865616D766B4
:10542000FF341444544444464C44FFF002F1342405
:10543000544454244454244434243454344454248C
:1054400045555434445424F1FFF002F1D0E2C40332
:10545000C403C40AC404C403C404D174245494E12E
:10546000D326E22CE1D1A6E2ACE1C6E2CCF1FFF01A
:1054700004F1D3E2F002F156A6C6D75626D3C6E30E
:10548000F1E5F006F156A6C6D75626D3C6E6F1F1E9
:10549000FFF008F1D7E325E5D335E375E5D725E33C
:1054A000D3A5E575E355E5A5E3D1C5E5D355E335CA
:1054B000E5D1C5F1FFD3E2166686D716D3B686E3EB
:1054C000F002F1166686D716D3B686F1E4F002F143
:1054D000166686D716D3B686F1E5F002F116668613
:1054E000D716D3B686F1E6F006F1166686D716D340
:1054F000B686F1E5166686D716D3B686E4166686B6
:10550000D716D3B686E3166686D716D3B686FF546B
:10551000345555251544351556565544FFD3E20AE2
:105520001464D7160CD3A5B3E5BBE6B4E2A4846536
:10553000E565E285E585E2A5E5A5E2658BE584E222
:1055400013E51AFFD303E21C75D71C55E655E21686
:105550003CD3C4D7160CD3850586AC547686751516
:1055600033E43BD7E6F002F1865636F1E5F003F17D
:10557000865636E4F1E3F003F1865636E2F1E1F0C7
:1055800002F1865636F1D38636FFD7E3F002F136C4
:10559000D366A6D75603F136D366A6D7560A36D3B6
:1055A00066A6D7560436D366A6D7560336D366A664
:1055B000D7560236D366A6D756D716D3A6D736D334
:1055C00066A6D756D7E416D3A6D736D366A6D7563F
:1055D000FF345454345454464C5454443454464C7C
:1055E000343454543454464C24464C545434544665
:1055F0004C54FFD1E2F002F196D31646866646D1AE
:10560000E3F1E4F002F196D31646866646D1E5F161
:10561000E6F00CF196D31646866646D1F1E5F00227
:10562000F196D31646866646D1E4F1E396D3164644
:1056300086FFD1E2F002F176B6D326664626D1E3A4
:10564000F1E4F002F176B6D326664626D1E5F1E61E
:10565000F00CF176B6D326664626D1F1E5F002F1DC
:1056600076B6D326664626D1E4F1E376B6D326662F
:10567000FFD0E1B6E3B40CD1B60CE1D0B6E3B5038C
:1056800006E1B6E3BC04D1B60B06E1D0B6E3B50340
:1056900006D1B6030CB60B06E1D0B6E3BC02E1B608
:1056A000E3BC04D1B60CE1D0B6E3BC04FFDFE356A3
:1056B000E45CE5D7C6E6CCE3DFA6E4ACE556E65C01
:1056C000E3C6E4CCE5A6E6ACE356E45CE5C6E6CC8E
:1056D000E3D7A6E4ACE5DF56E65CE3D7C6E4CCE569
:1056E000A6E6ACFFD3E3C404E5C4E3C4D75AE45A46
:1056F000E55AE65AE75355E3755525D3C4E5C4E3A7
:10570000D734E534E374E574E3A39AE49AA6B6E3E8
:10571000C3C5E4CAE5CAC5B6A6E394E494E354E479
:1057200054E394E494E3C4E4C4E3AAE4AAE39AE46B
:105730009AE37AE47AE3D3CAD736769395FFD7E330
:105740005AE45AE3D3CAE4CAE5CAE6CAE7C3FFD7B4
:10575000E35AE45AE55AE65AE75AE85254FFD7E3C7
:105760005404E554E354C5DF2325E42AE52AE62A58
:1057700002E32555E454E3D7C4E4C4E3A4E4A4E37A
:10578000DF14E414E3D7CAE4CAE3DF5AE45AE5526B
:10579000E37304E474E39304E494E3A204E4A4E371
:1057A0009204E494E3445245352204E424E3D7C24E
:1057B000C4E4C2C4E5C2C4E6C2C4E7C2FFD0E35435
:1057C000E45402E354E45403E354E454FFD0E3C448
:1057D000E4C402E3C4E4C403E3C4E4C4FF335323D6
:1057E0003353464B06FFD7E4F003F156D396C6D7A2
:1057F000F1E4DFACE556E65CE3C6E4CCE5A6E6AC56
:10580000D7E4F003F156D396C6D7F1E4ACE5DF5602
:10581000E65CE3D7C6E4CCE5A6E6ACE3DF56E45CA1
:10582000E5D7C6E6CCE4F003F156D396C6D7F1E44B
:10583000DFCCE5A6E6ACD7E4F003F156D396C6D7A5
:10584000F1E4ACE5DF56E65CE3D7C6E4CCE5A6E6DA
:10585000ACFFD0E2A4E3A4E2D3540AD0A4E3A4E2D0
:10586000D35404D0A4E3A4FFD0E254E354E2D354CD
:105870000AD054E354E2D35404D054E354FFE2F08A
:1058800002F1D3A6D7265696C6DF2656A6E3F1E444
:10589000F002F1D3A6D7265696C6DF2656A6E5F126
:1058A000E6F002F1D3A6D7265696C6DF2656A6E71F
:1058B000F1E6F002F1DF5606D7C6067606D3A60655
:1058C000E5F1E4F002F1DF5606D7C6067606D3A668
:1058D00006E3F1E2F002F1DF5606D7C6067606D3FC
:1058E000A606E1F1E5DF5626D7C6E4A69676E3568E
:1058F00026D3C6E2A69676E15626D1C6A6FFD1E209
:1059000054E35404E1D7560CD3560B06E2D154E3CA
:10591000540AE1D7560CD3560A0CE2D144E34404AE
:10592000E1D7560CD3560B06E2D144E3440AE1D743
:10593000560CD3560A0CE2D134E33404E1D7560CAA
:10594000D3560B06E2D134E3340AE1D7560CD356D2
:105950000A0CE2D124E32404E1D7560CD3560B06FB
:10596000E2D124E3240AE1D7560CD3560A0CE2D143
:1059700014E31404E1D7560CD3560B06E2D114E31A
:10598000140AE1D7560CD3560A0CE2D0C4E3C4047F
:10599000E1D7560CD3560B06E2D0C4E3C40AE1D7D4
:1059A000560CD3560A0CFF335555555543235333E4
:1059B000464B0613FFD1E3C403C4D352E552E6536A
:1059C000E3544454D1C4D35494547AE572E672E358
:1059D000D1C404E6C4E3C4D392E592E693E394848D
:1059E000945494C4A2E5A2E6A2E32404E624E324AA
:1059F000AAE5AA03E3A40495A59473A3759B04E602
:105A000094E3455B04E654E3D1C304E6C4E3C40471
:105A1000E6C4E3C4FFD0E2B4E3B404E1D7560CD348
:105A2000560B06E2D0B4E3B40AE1D7560CD3560ABB
:105A30000CE2D0C4E3C404E1D7560CD3560B06E203
:105A4000D0C4E3C4E1D7261605D3A69605A69605CD
:105A5000D7560CD3560B06A6968676665605FF33A8
:105A6000555555554323444433464B0643FFD3E332
:105A70002304E624E35304E654E3557B05E655741A
:105A8000E3759B05E67594E355755AE452E552E6D5
:105A900052FFDFE356E45CE5D7C6E6CCE3DFA6E4DD
:105AA000ACE556E65CE3C6E4CCE5A6E6ACE356E43A
:105AB0005CE5C6E6CCFF3232325555555513FFF042
:105AC00010F1D3E45696E2C6F1F005F1D3E4569610
:105AD000E2D756F106F010F1D3E44696E2C6F1F0B3
